:020000040800F2
:10000000000002205D100008C50F0008CD0F000899
:10001000D50F0008DD0F0008E50F00080000000004
:10002000000000000000000000000000E15900088E
:10003000ED0F000800000000315C000829320008C4
:10004000AD100008AD100008AD100008AD1000089C
:10005000AD100008AD100008AD100008AD1000088C
:10006000AD100008AD100008AD100008AD1000087C
:10007000AD100008AD100008AD100008AD1000086C
:10008000AD100008AD100008AD100008AD1000085C
:10009000FD0F0008AD100008AD100008AD100008FD
:1000A000AD100008AD100008AD100008AD1000083C
:1000B000AD100008AD100008AD100008AD1000082C
:1000C000AD100008AD100008AD100008AD1000081C
:1000D000AD100008AD100008AD100008AD1000080C
:1000E000AD100008AD100008AD100008AD100008FC
:1000F000AD10000811100008AD100008AD10000888
:10010000AD100008AD100008AD100008AD100008DB
:10011000AD100008AD100008AD100008AD100008CB
:10012000AD100008AD100008AD100008AD100008BB
:10013000AD100008AD100008AD100008AD100008AB
:10014000AD10000825100008AD100008AD10000823
:10015000AD100008AD100008AD100008AD1000088B
:10016000AD100008AD100008AD100008AD1000087B
:10017000AD100008AD100008AD1000080000000030
:08018000AD100008AD100008ED
:1001900010B5054C237833B9044B13B10448AFF3C1
:1001A00000800123237010BD6000002000000000CB
:1001B0007863000808B5034B1BB103490348AFF34C
:1001C000008008BD00000000640000207863000883
:1001D00053B94AB9002908BF00281CBF4FF0FF31AE
:1001E0004FF0FF3000F088B9ADF1080C6DE904CE96
:1001F00000F006F8DDF804E0DDE9022304B0704702
:100200002DE9F047089D8E4604468846002B4AD1CA
:100210008A42174662D9B2FA82F64EB1C6F120037D
:1002200001FA06F820FA03F3B74043EA0808B4409D
:100230004FEA174E1FFA87FCB8FBFEF1230C0EFBAA
:10024000118843EA084301FB0CF29A4209D9FB18D2
:1002500001F1FF3080F0EA809A4240F2E7800239F3
:100260003B449A1AA3B2B2FBFEF00EFB102243EA03
:10027000024300FB0CFC9C4509D9FB1800F1FF323E
:1002800080F0D6809C4540F2D3803B44023840EA5F
:100290000140A3EB0C0300211DB1F3400022C5E98E
:1002A0000032BDE8F0878B4205D90DB1C5E90001E8
:1002B00000210846F5E7B3FA83F1002946D17345DA
:1002C00002D3824200F20581841A6EEB0302012000
:1002D0009046002DE5D0C5E90048E2E7002A00F08D
:1002E0009080B2FA82F6002E40F0A4808A1A030CA5
:1002F0004FEA174E80B2BCB20121B2FBFEFC0EFBEE
:100300001C2243EA024304FB0CF29A4207D9FB1871
:100310000CF1FF3802D29A4200F2E080C4469B1AE8
:10032000B3FBFEF20EFB123340EA034302FB04F47C
:100330009C4207D9FB1802F1FF3002D29C4200F226
:10034000CA8002461B1B42EA0C40A5E7C1F1200609
:100350008B4022FA06F71F430EFA01F420FA06F347
:100360002EFA06FE4FEA1749234300FA01F81FFA56
:1003700087FCBEFBF9F01C0C09FB10EE44EA0E44AE
:1003800000FB0CFEA64502FA01F209D93C1900F166
:10039000FF3A80F09C80A64540F2998002383C44A8
:1003A000A4EB0E041FFA83FEB4FBF9F309FB13441C
:1003B0004EEA044403FB0CFCA44508D93C1903F1A4
:1003C000FF3E80F08280A4457FD9023B3C4443EA53
:1003D0000040A4EB0C04A0FB02EC64457346E1462C
:1003E00062D35FD05DB1B8EB030264EB090404FA99
:1003F00006F622FA01F31E43CC40C5E90064002151
:100400004FE7B1FBF2FC010C41EA0E4180B240EA39
:1004100001423B4638463C46B846BE462026B1FB24
:10042000F7F1A2EB080241EA0C4166E7014618E742
:1004300010462CE7C6F120022EFA02F3B740B14075
:1004400020FA02F24FEA174E0A43B3FBFEF8BCB2A1
:100450000EFB1833110C41EA034108FB04F9B040CC
:1004600089454FEA104380B23ED9791808F1FF3C24
:1004700001D289451FD8A1EB0901B1FBFEF909FBA7
:1004800004F80EFB191192B242EA0142424529D208
:10049000BA1809F1FF31C4D24245C2D2A9F1020112
:1004A0003A44BEE7F0459DD2BEEB02036CEB070C6D
:1004B0000138E14696E7A7EB09094944A8F1020C87
:1004C000B1FBFEF909FB04F8DBE773467FE7504612
:1004D00066E70846FDE63B44023A33E7ACF1020C1E
:1004E0003B441CE749469CE7A1EB0901C446B1FB2C
:1004F000FEF909FB04F8C4E7704700BF80B58EB071
:1005000000AFF860B9607A60FB700023BB61002324
:10051000FB82BB68FB6100237B620023BB62FB782C
:10052000FB62002387F8303007F1180307F11C0144
:100530007A68F86801F01CF8034687F8373097F8B6
:100540003730002B02D097F8373009E000BFBB6985
:100550001946F86801F0DCF80346002BF7D10023B8
:1005600018463837BD4680BD80B58CB000AFF86006
:10057000B9607A60FB7000233B61BB68BB610423F8
:10058000FB6100233B62FB787B62002387F8283005
:1005900007F1100307F114017A68F86800F0E8FF2A
:1005A000034687F82F3097F82F30002B02D097F8AA
:1005B0002F3009E000BF3B691946F86801F0A8F840
:1005C0000346002BF7D1002318463037BD4680BDC7
:1005D00080B584B000AF78607B681B683E4A934268
:1005E00076D13E4B3E4A0021786801F0B5F83B4B8E
:1005F0001A783C4B1A70394B5A783A4B5A70374B31
:100600009A78384B9A70354BDA78364BDA70334B30
:100610001A79344B1A71314B5A79324B5A712F4B2C
:100620009A79304B9A712D4BDA792E4BDA712C4B2B
:100630009B682D4A13602C4B1B68002B1BD1284B49
:100640001B682A4A1360294B1B68DAB2254B1A72C1
:10065000264B1B681B0ADAB2224B5A72234B1B68CB
:100660001B0CDAB21F4B9A72204B1B681B0EDAB2BE
:100670001C4BDA721AE01A4B5B681D4A13601C4B64
:100680001B68DAB2174B1A72194B1B681B0ADAB2D5
:10069000144B5A72164B1B681B0CDAB2114B9A7230
:1006A000134B1B681B0EDAB20E4BDA720E4B1B6833
:1006B000DAB20C4B1A730A4B1B69DAB2094B5A7344
:1006C0000C4B186800230022064902F031FFF86045
:1006D00000BF1037BD4680BD00640040A800002068
:1006E0007C00002098000020B4000020B80000200A
:1006F000BC0000206401002080B584B000AF7860A9
:100700007B681B68474A934240F08780464B474AC4
:100710000121786801F020F8434B1B78DAB2444B92
:100720001A70414B5B78DAB2414B5A703E4B9B7862
:10073000DAB23F4B9A703C4BDB78DAB23C4BDA7062
:10074000394B1B79DAB23A4B1A71374B5B79DAB213
:10075000374B5A71344B9B79DAB2354B9A71324B25
:10076000DB79DAB2324BDA71304B9B68314A136075
:10077000304B1B68002B1BD12C4B1B682E4A13607F
:100780002D4B1B68DAB22A4B1A722B4B1B681B0AC3
:10079000DAB2274B5A72284B1B681B0CDAB2244B77
:1007A0009A72254B1B681B0EDAB2214BDA721AE0E3
:1007B0001E4B5B68214A1360204B1B68DAB21C4B4E
:1007C0001A721E4B1B681B0ADAB2194B5A721B4B6A
:1007D0001B681B0CDAB2164B9A72184B1B681B0E67
:1007E000DAB2134BDA72134B1B68DAB2104B1A737E
:1007F0000E4B1B69DAB20E4B5A73114B186800236B
:1008000000220B4902F094FEF86000F087FC0346DA
:100810000C4A13600C4B00221A7000BF1037BD4603
:1008200080BD00BF00680040EC000020C000002038
:10083000DC000020F8000020FC0000200001002067
:1008400068010020080100200401002080B500AFED
:1008500000F02EFC00F052F800F060F900F0B8F85B
:1008600000F008F9194800F03FFE194800F03CFE7E
:100870000221164801F092F81021154801F08EF877
:1008800002F0ECFC134A0E21322002F0DEFD03469A
:10089000114A1360114A0E21322002F0D6FD0346A0
:1008A0000F4A13600F4A00210F4802F021FD034652
:1008B0000E4A13600E4A00210E4802F019FD03464D
:1008C0000D4A136002F0EEFC00BFFDE70C010020B2
:1008D00034010020386400086401002050640008DE
:1008E00068010020F0630008A50B00085C010020EF
:1008F00014640008450C00086001002080B594B025
:1009000000AF07F1200330220021184605F044FC17
:1009100007F10C0300221A605A609A60DA601A61CB
:100920000023BB60284B1B6C274A43F080531364A1
:10093000254B1B6C03F08053BB60BB6800237B60BE
:10094000224B1B68214A43F4804313601F4B1B68F2
:1009500003F480437B607B6801233B624FF4803368
:100960007B620223BB634FF48003FB6304233B647D
:10097000A8237B640223BB640423FB6407F12003E8
:10098000184601F0D5FC0346002B01D000F0BCF95D
:100990000F23FB6002233B6100237B614FF4A053D4
:1009A000BB614FF48053FB6107F10C03052118462E
:1009B00001F036FF0346002B01D000F0A5F900BF7F
:1009C0005037BD4680BD00BF003802400070004077
:1009D00080B58AB000AF254B254A1A60234B06220A
:1009E0005A60224B00229A60204B0022DA601F4B93
:1009F0004FF420221A611D4B4FF480125A611B4B99
:100A000000221A76194B00225A76184B00229A7649
:100A1000164B0022DA76154B00221A77134B002270
:100A20005A77124800F086FB0346002B01D000F0F5
:100A30006BF900237B610023BB610123FB61002371
:100A40003B6000237B600023BB600023FB6000232E
:100A50003B6101233B620E237B623B461946034800
:100A600000F064FC00BF2837BD4680BD0C010020AB
:100A70000064004080B58AB000AF254B254A1A605B
:100A8000234B06225A60224B00229A60204B002200
:100A9000DA601F4B4FF420221A611D4B4FF4801275
:100AA0005A611B4B00221A76194B00225A76184BBA
:100AB00000229A76164B0022DA76154B00221A771E
:100AC000134B00225A77124800F034FB0346002BE8
:100AD00001D000F019F90E237B610023BB610123D3
:100AE000FB6100233B6000237B600023BB6000238D
:100AF000FB6001233B6101233B620E237B623B468B
:100B00001946054800F012FC00BF2837BD4680BDDD
:100B100034010020006800400C01002080B485B042
:100B200000AF0023FB601E4B1B6B1D4A43F080038C
:100B300013631B4B1B6B03F08003FB60FB680023FC
:100B4000BB60174B1B6B164A43F002031363144B35
:100B50001B6B03F00203BB60BB6800237B60104B80
:100B60001B6B0F4A43F0010313630D4B1B6B03F028
:100B700001037B607B6800233B60094B1B6B084AC9
:100B800043F008031363064B1B6B03F008033B6041
:100B90003B6800BF1437BD465DF8047B704700BF5B
:100BA0000038024080B58AB000AF7860224B1868E8
:100BB00007F114014FF0FF33002202F019FD7862B3
:100BC0007B6A002B34D13B7F1A467B7F1B021A4382
:100BD000BB7F1B041A43FB7F1B0613431A46174BAC
:100BE0001A603B7D3B737B7D7B73BB7DBB73FB7D61
:100BF000FB733B7E3B747B7E7B74BB7EBB74FB7E56
:100C0000FB7497F82030002B09D10C4B196897F82A
:100C1000213007F10C020A48FFF770FC08E0074B8F
:100C2000196897F8213007F10C020548FFF79CFC82
:100C3000012002F0EFFBB9E764010020B0000020C2
:100C40003401002080B58AB000AF7860224B18686C
:100C500007F114014FF0FF33002202F0C9FC786263
:100C60007B6A002B34D13B7F1A467B7F1B021A43E1
:100C7000BB7F1B041A43FB7F1B0613431A46174B0B
:100C80001A603B7D3B737B7D7B73BB7DBB73FB7DC0
:100C9000FB733B7E3B747B7E7B74BB7EBB74FB7EB5
:100CA000FB7497F82030002B09D10C4B196897F88A
:100CB000213007F10C020A48FFF720FC08E0074B3F
:100CC000196897F8213007F10C020548FFF74CFC32
:100CD000012002F09FFBB9E768010020F40000202A
:100CE0000C01002080B582B000AF78607B681B6883
:100CF000044A934201D100F0FDF900BF0837BD4618
:100D000080BD00BF0020004080B400AF72B600BFBD
:100D100000BFFDE780B582B000AF00237B60124BBF
:100D20005B6C114A43F4804353640F4B5B6C03F4D8
:100D300080437B607B6800233B600B4B1B6C0A4A43
:100D400043F080531364084B1B6C03F080533B60EB
:100D50003B6800220F216FF0010001F023F900BF72
:100D60000837BD4680BD00BF0038024080B58CB05A
:100D700000AF786007F11C0300221A605A609A6085
:100D8000DA601A617B681B684A4A93423DD14A4B3C
:100D90001B680133484A1360474B1B68012B0DD178
:100DA0000023BB61454B1B6C444A43F00073136442
:100DB000424B1B6C03F00073BB61BB6900237B617A
:100DC0003E4B1B6B3D4A43F0080313633B4B1B6BCD
:100DD00003F008037B617B690323FB6102233B6211
:100DE00000237B620323BB620923FB6207F11C0320
:100DF0001946334801F000F900220521142001F0C2
:100E0000D1F8142001F0EAF850E07B681B682D4A05
:100E100093424BD100233B61284B1B6C274A43F084
:100E200080631364254B1B6C03F080633B613B695B
:100E3000214B1B680133204A13601F4B1B68012B99
:100E40000DD10023FB601D4B1B6C1C4A43F000734B
:100E500013641A4B1B6C03F00073FB60FB680023E8
:100E6000BB60164B1B6B154A43F002031363134B15
:100E70001B6B03F00203BB60BB684FF44053FB6184
:100E800002233B6200237B620323BB620923FB62D4
:100E900007F11C0319460C4801F0AEF800220521A9
:100EA000412001F07FF8412001F098F800BF303771
:100EB000BD4680BD006400406C0100200038024047
:100EC000000C0240006800400004024080B58EB073
:100ED00000AF78600023FB620023BB620023FB604D
:100EE000334B1B6C324A43F480731364304B1B6CDE
:100EF00003F48073FB60FB6807F1100207F1140331
:100F00001146184601F098FE3B6AFB62FB6A002B13
:100F100003D101F07DFE786304E001F079FE034621
:100F20005B007B637B6B234AA2FB03239B0C013B8F
:100F3000BB62214B214A1A601F4B40F2E732DA6054
:100F40001D4ABB6A53601C4B00221A611A4B0022D7
:100F50009A60194B00229A61174801F09FFE0346E0
:100F600087F8333097F83330002B1BD1124801F04B
:100F7000EFFE034687F8333097F83330002B11D15A
:100F80002D2001F02BF87B680F2B08D80022796800
:100F90002D2001F007F80A4A7B68136002E0012364
:100FA00087F8333097F8333018463837BD4680BD60
:100FB0000038024083DE1B43700100200020004007
:100FC0000400002080B400AF00BFFDE780B400AF94
:100FD00000BFFDE780B400AF00BFFDE780B400AF05
:100FE00000BFFDE780B400AF00BFFDE780B400AFF5
:100FF00000BFBD465DF8047B7047000080B500AFC0
:10100000024800F0F1FC00BF80BD00BF0C010020D1
:1010100080B500AF024801F00BFF00BF80BD00BFEC
:101020007001002080B500AF024800F0DDFC00BF79
:1010300080BD00BF3401002080B400AF064BD3F860
:101040008830054A43F47003C2F8883000BFBD46BB
:101050005DF8047B704700BF00ED00E0DFF834D09E
:10106000FFF7EAFF0C480D490D4A002302E0D4586F
:10107000C4500433C4188C42F9D30A4A0A4C0023E2
:1010800001E013600432A242FBD305F0EBF8FFF756
:10109000DDFB7047000002200000002060000020FF
:1010A0009064000860000020E44C0020FEE700008F
:1010B00080B500AF0E4B1B680D4A43F400731360FC
:1010C0000B4B1B680A4A43F480631360084B1B6890
:1010D000074A43F480731360032000F058FF0F2089
:1010E000FFF7F4FEFFF716FE0023184680BD00BF91
:1010F000003C024080B400AF064B1B781A46064BFA
:101100001B681344044A136000BFBD465DF8047BAE
:10111000704700BF08000020B801002080B400AF75
:10112000034B1B681846BD465DF8047B704700BF43
:10113000B801002080B584B000AF78607B68002BD8
:1011400001D10123EDE07B6893F82030DBB2002B66
:1011500002D17868FFF70AFE7B681B681A687B6813
:101160001B6842F001021A60FFF7D8FFF86012E036
:10117000FFF7D4FF0246FB68D31A0A2B0BD97B6812
:101180005B6A43F400327B685A627B68052283F80D
:1011900020200123C5E07B681B685B6803F0010326
:1011A000002BE5D07B681B681A687B681B6822F0FF
:1011B00002021A60FFF7B2FFF86012E0FFF7AEFF1D
:1011C0000246FB68D31A0A2B0BD97B685B6A43F48F
:1011D00000327B685A627B68052283F82020012355
:1011E0009FE07B681B685B6803F00203002BE5D17E
:1011F0007B681B7E012B08D17B681B681A687B68A3
:101200001B6842F080021A6007E07B681B681A685E
:101210007B681B6822F080021A607B685B7E012B72
:1012200008D17B681B681A687B681B6842F0400223
:101230001A6007E07B681B681A687B681B6822F0ED
:1012400040021A607B689B7E012B08D17B681B687B
:101250001A687B681B6842F020021A6007E07B680E
:101260001B681A687B681B6822F020021A607B6882
:10127000DB7E012B08D17B681B681A687B681B68C2
:1012800022F010021A6007E07B681B681A687B680E
:101290001B6842F010021A607B681B7F012B08D18B
:1012A0007B681B681A687B681B6842F008021A603A
:1012B00007E07B681B681A687B681B6822F00802DD
:1012C0001A607B685B7F012B08D17B681B681A68FA
:1012D0007B681B6842F004021A6007E07B681B68A9
:1012E0001A687B681B6822F004021A607B689A689F
:1012F0007B68DB681A437B681B691A437B685B6900
:1013000042EA03017B685B685A1E7B681B680A43DC
:10131000DA617B6800225A627B68012283F8202010
:10132000002318461037BD4680BD000080B487B04A
:1013300000AF786039607B6893F82030FB75FB7DE7
:10134000012B03D0FB7D022B40F0BE80654B3B613F
:101350003B69D3F8003243F001023B69C3F8002235
:101360003B69D3F8003223F47C523B69C3F8002276
:101370003B69D3F800223B685B6A1B021A433B6956
:10138000C3F800223B685B6903F01F03012202FAE5
:1013900003F3FB603B69D3F81C22FB68DB431A4074
:1013A0003B69C3F81C223B68DB69002B23D13B69F6
:1013B000D3F80C22FB68DB431A403B69C3F80C22CC
:1013C0003B68DB6819043B685B689BB23A6852690A
:1013D00019433B69483243F832103B689B68190453
:1013E0003B681B689AB23B685B690A4339694833BA
:1013F000DB000B445A603B68DB69012B22D13B695F
:10140000D3F80C22FB681A433B69C3F80C223B68F3
:101410001B6819043B685B689BB23A6852691943C0
:101420003B69483243F832103B689B6819043B68BB
:10143000DB689AB23B685B690A4339694833DB0071
:101440000B445A603B689B69002B09D13B69D3F878
:101450000422FB68DB431A403B69C3F8042207E01F
:101460003B69D3F80422FB681A433B69C3F80422A2
:101470003B681B69002B09D13B69D3F81422FB6838
:10148000DB431A403B69C3F8142207E03B69D3F8F9
:101490001422FB681A433B69C3F814223B681B6A99
:1014A000012B07D13B69D3F81C22FB681A433B6927
:1014B000C3F81C223B69D3F8003223F001023B69D8
:1014C000C3F80022002306E07B685B6A43F48022B5
:1014D0007B685A62012318461C37BD465DF8047BC1
:1014E000704700BF0064004080B584B000AF7860F2
:1014F0007B6893F82030DBB2012B2ED17B6802226F
:1015000083F820207B681B681A687B681B6822F0C0
:1015100001021A60FFF702FEF86012E0FFF7FEFD1D
:101520000246FB68D31A0A2B0BD97B685B6A43F42B
:1015300000327B685A627B68052283F820200123F1
:1015400012E07B681B685B6803F00103002BE5D1A8
:101550007B6800225A62002306E07B685B6A43F4E2
:1015600000227B685A62012318461037BD4680BDB1
:1015700080B489B000AFF860B9607A603B60FB6806
:1015800093F82030FB77FB681B689B68BB61FB7F8F
:10159000012B03D0FB7F022B40F0AD80BB6903F031
:1015A0008063002B0AD1BB6903F00063002B05D1D7
:1015B000BB6903F08053002B00F09580BB691B0EC4
:1015C00003F003037B6101227B699A403B681A6048
:1015D000BB689B68002B0DD1BB681B685A05BB68B4
:1015E000DB68F96809681A437B6918331B010B44EF
:1015F0001A600FE0BB685B68DA00BB689B681A433F
:10160000BB68DB68F96809681A437B6918331B01FA
:101610000B441A60FB681968BB681A697B69183348
:101620001B010B4404331A60BB681B7D012B11D1D5
:10163000FB681A687B6918331B01134404331B6869
:10164000FA68116843F480727B6918331B010B44FC
:1016500004331A607B6807331B781A067B680633ED
:101660001B781B041A437B6805331B781B0213434A
:101670007A68043212781046FA68116843EA000268
:101680007B691B010B4403F5C6731A607B68033347
:101690001B781A067B6802331B781B041A437B688D
:1016A00001331B781B0213437A6812781046FA68DC
:1016B000116843EA00027B691B010B4403F5C47304
:1016C0001A60FB681A687B6918331B0113441B6896
:1016D000FA68116843F001027B6918331B010B445F
:1016E0001A6000230EE0FB685B6A43F40012FB689B
:1016F0005A62012306E0FB685B6A43F48022FB68C0
:101700005A62012318462437BD465DF8047B7047B2
:1017100080B485B000AF786039600023FB607B68DF
:1017200093F82030FB72FB7A012B02D0FB7A022B5C
:101730000BD17B681B689A683B689B061A403B6824
:101740009B069A4201D00123FB60FB6818461437C0
:10175000BD465DF8047B704780B487B000AFF86089
:10176000B9607A603B60FB6893F82030FB75FB7DC5
:10177000012B03D0FB7D022B40F00381BB68002BC3
:101780000ED1FB681B68DB6803F00303002B16D146
:10179000FB685B6A43F40012FB685A620123F7E0BE
:1017A000FB681B681B6903F00303002B07D1FB6870
:1017B0005B6A43F40012FB685A620123E8E0FB68AD
:1017C0001A68BB681B331B0113441B6803F0040237
:1017D0007B689A607B689B68002B0CD1FB681A6859
:1017E000BB681B331B0113441B685B0DC3F30A0268
:1017F0007B681A600BE0FB681A68BB681B331B012F
:1018000013441B68DB0823F060427B685A60FB6866
:101810001A68BB681B331B0113441B6803F00202E8
:101820007B68DA60FB681A68BB681B331B011344D2
:1018300004331B6803F00803002B03D07B680822E5
:101840001A610BE0FB681A68BB681B331B01134469
:1018500004331B6803F00F027B681A61FB681A6887
:10186000BB681B331B01134404331B681B0ADAB229
:101870007B689A61FB681A68BB681B331B011344C1
:1018800004331B681B0C9AB27B685A61FB681A68A8
:10189000BB681B01134403F5DC731B68DAB23B68B9
:1018A0001A70FB681A68BB681B01134403F5DC73EC
:1018B0001B681A0A3B680133D2B21A70FB681A68B7
:1018C000BB681B01134403F5DC731B681A0C3B68EF
:1018D0000233D2B21A70FB681A68BB681B0113444A
:1018E00003F5DC731B681A0E3B680333D2B21A701F
:1018F000FB681A68BB681B01134403F5DE731A68A2
:101900003B680433D2B21A70FB681A68BB681B01CB
:10191000134403F5DE731B681A0A3B680533D2B221
:101920001A70FB681A68BB681B01134403F5DE7369
:101930001B681A0C3B680633D2B21A70FB681A682F
:10194000BB681B01134403F5DE731B681A0E3B686A
:101950000733D2B21A70BB68002B08D1FB681B6832
:10196000DA68FB681B6842F02002DA6007E0FB6877
:101970001B681A69FB681B6842F020021A61002389
:1019800006E0FB685B6A43F48022FB685A6201232D
:1019900018461C37BD465DF8047B704780B485B09F
:1019A00000AF786039607B6893F82030FB73FB7B75
:1019B000012B02D0FB7B022B09D17B681B68596984
:1019C0007B681B683A680A435A61002306E07B681B
:1019D0005B6A43F480227B685A62012318461437FD
:1019E000BD465DF8047B704780B58AB000AF786073
:1019F00000237B627B681B685B693B627B681B68BA
:101A00005B68FB617B681B689B68BB617B681B68CC
:101A1000DB687B617B681B681B693B617B681B68BB
:101A20009B69FB603B6A03F00103002B7CD0BB6920
:101A300003F00103002B23D07B681B6801229A600E
:101A4000BB6903F00203002B03D0786800F083F930
:101A500016E0BB6903F00403002B04D07B6A43F457
:101A600000637B620CE0BB6903F00803002B04D029
:101A70007B6A43F480537B6202E0786800F089F966
:101A8000BB6903F48073002B24D07B681B684FF480
:101A900080729A60BB6903F40073002B03D07868EE
:101AA00000F063F916E0BB6903F48063002B04D0F7
:101AB0007B6A43F400537B620CE0BB6903F4006370
:101AC000002B04D07B6A43F480437B6202E0786899
:101AD00000F069F9BB6903F48033002B24D07B68E4
:101AE0001B684FF480329A60BB6903F40033002B0B
:101AF00003D0786800F043F916E0BB6903F4802353
:101B0000002B04D07B6A43F400437B620CE0BB698A
:101B100003F40023002B04D07B6A43F480337B6200
:101B200002E0786800F049F93B6A03F00803002BF3
:101B30000CD07B6903F01003002B07D07B6A43F4C1
:101B400000737B627B681B681022DA603B6A03F0DB
:101B50000403002B0BD07B6903F00803002B06D095
:101B60007B681B680822DA60786800F030F93B6A0D
:101B700003F00203002B09D07B681B68DB6803F0CD
:101B80000303002B02D07868FEF722FD3B6A03F0C6
:101B90004003002B0CD03B6903F01003002B07D04F
:101BA0007B6A43F480637B627B681B6810221A6146
:101BB0003B6A03F02003002B0BD03B6903F00803C2
:101BC000002B06D07B681B6808221A61786800F039
:101BD00008F93B6A03F01003002B09D07B681B68EF
:101BE0001B6903F00303002B02D07868FEF784FD25
:101BF0003B6A03F40033002B0BD0FB6903F01003A6
:101C0000002B06D07B681B6810225A60786800F0B1
:101C1000F2F83B6A03F48033002B0BD0FB6903F02E
:101C20000803002B06D07B681B6808225A6078687E
:101C300000F0EBF83B6A03F40043002B7BD0FB6918
:101C400003F00403002B72D03B6A03F48073002B73
:101C500008D0FB6803F00103002B03D07B6A43F03C
:101C600001037B623B6A03F40073002B08D0FB681E
:101C700003F00203002B03D07B6A43F002037B6274
:101C80003B6A03F48063002B08D0FB6803F0040375
:101C9000002B03D07B6A43F004037B623B6A03F4AE
:101CA0000063002B43D0FB6803F07003002B3ED091
:101CB000FB6803F07003602B2BD0602B2ED8502BC9
:101CC00022D0502B2AD8402B19D0402B26D8302B8D
:101CD00010D0302B22D8102B02D0202B05D01DE0A5
:101CE0007B6A43F008037B6219E07B6A43F01003D0
:101CF0007B6214E07B6A43F020037B620FE07B6A27
:101D000043F040037B620AE07B6A43F080037B621E
:101D100005E07B6A43F480737B6200E000BF7B6870
:101D20001B689A697B681B6822F070029A617B6865
:101D30001B6804225A607B6A002B08D07B685A6AB1
:101D40007B6A1A437B685A62786800F068F800BFC3
:101D50002837BD4680BD80B483B000AF786000BF37
:101D60000C37BD465DF8047B704780B483B000AF8C
:101D7000786000BF0C37BD465DF8047B704780B4C7
:101D800083B000AF786000BF0C37BD465DF8047BC0
:101D9000704780B483B000AF786000BF0C37BD4699
:101DA0005DF8047B704780B483B000AF786000BFFB
:101DB0000C37BD465DF8047B704780B483B000AF3C
:101DC000786000BF0C37BD465DF8047B704780B477
:101DD00083B000AF786000BF0C37BD465DF8047B70
:101DE000704780B483B000AF786000BF0C37BD4649
:101DF0005DF8047B704780B483B000AF786000BFAB
:101E00000C37BD465DF8047B704780B483B000AFEB
:101E1000786000BF0C37BD465DF8047B704780B426
:101E200083B000AF786000BF0C37BD465DF8047B1F
:101E30007047000080B485B000AF78607B6803F025
:101E40000703FB600C4BDB68BB60BA684FF6FF030F
:101E50001340BB60FB681A02BB68134343F0BF63C7
:101E600043F40033BB60044ABB68D36000BF14373F
:101E7000BD465DF8047B704700ED00E080B400AF24
:101E8000044BDB681B0A03F007031846BD465DF8E8
:101E9000047B704700ED00E080B483B000AF0346E0
:101EA000FB7197F90730002B0BDBFB7903F01F0266
:101EB000074997F907305B09012000FA02F241F85F
:101EC000232000BF0C37BD465DF8047B704700BF80
:101ED00000E100E080B483B000AF03463960FB71DD
:101EE00097F90730002B0ADB3B68DAB20C4997F907
:101EF00007301201D2B20B4483F800230AE03B689A
:101F0000DAB20849FB7903F00F03043B1201D2B2A5
:101F10000B441A7600BF0C37BD465DF8047B704752
:101F200000E100E000ED00E080B489B000AFF860AF
:101F3000B9607A60FB6803F00703FB61FB69C3F1DA
:101F40000703042B28BF0423BB61FB690433062B62
:101F500002D9FB69033B00E000237B614FF0FF32B5
:101F6000BB6902FA03F3DA43BB681A407B699A4003
:101F70004FF0FF317B6901FA03F3D9437B680B40D3
:101F8000134318462437BD465DF8047B704780B57F
:101F900082B000AF78607868FFF74CFF00BF083769
:101FA000BD4680BD80B586B000AF0346B9607A609B
:101FB000FB7300237B61FFF761FF78617A68B96882
:101FC0007869FFF7B1FF024697F90F3011461846BE
:101FD000FFF780FF00BF1837BD4680BD80B582B0D7
:101FE00000AF0346FB7197F907301846FFF754FF1F
:101FF00000BF0837BD4680BD80B489B000AF7860AF
:10200000396000237B6100233B610023BB61002317
:10201000FB616BE10122FB6902FA03F37B613B6820
:102020001B687A6913403B613A697B699A4240F0C8
:102030005A813B685B6803F00303012B05D03B68C2
:102040005B6803F00303022B30D17B689B68BB61A4
:10205000FB695B00032202FA03F3DB43BA69134016
:10206000BB613B68DA68FB695B0002FA03F3BA699B
:102070001343BB617B68BA699A607B685B68BB612C
:102080000122FB6902FA03F3DB43BA691340BB6127
:102090003B685B681B0903F00102FB6902FA03F36A
:1020A000BA691343BB617B68BA695A603B685B6875
:1020B00003F00303032B17D07B68DB68BB61FB696C
:1020C0005B00032202FA03F3DB43BA691340BB61EE
:1020D0003B689A68FB695B0002FA03F3BA69134331
:1020E000BB617B68BA69DA603B685B6803F0030335
:1020F000022B23D1FB69DA087B68083253F82230BF
:10210000BB61FB6903F007039B000F2202FA03F394
:10211000DB43BA691340BB613B681A69FB6903F092
:1021200007039B0002FA03F3BA691343BB61FB691F
:10213000DA087B680832B96943F822107B681B68AB
:10214000BB61FB695B00032202FA03F3DB43BA695C
:102150001340BB613B685B6803F00302FB695B00F3
:1021600002FA03F3BA691343BB617B68BA691A6068
:102170003B685B6803F44033002B00F0B48000231D
:10218000FB60604B5B6C5F4A43F4804353645D4B80
:102190005B6C03F48043FB60FB685B4AFB699B0854
:1021A000023352F82330BB61FB6903F003039B0049
:1021B0000F2202FA03F3DB43BA691340BB617B6869
:1021C000524A93422BD07B68514A934225D07B6878
:1021D000504A93421FD07B684F4A934219D07B6884
:1021E0004E4A934213D07B684D4A93420DD07B6890
:1021F0004C4A934207D07B684B4A934201D1072354
:102200000EE008230CE006230AE0052308E004237F
:1022100006E0032304E0022302E0012300E00023A0
:10222000FA6902F0030292009340BA691343BB615A
:102230003549FB699B080233BA6941F823203B4BBF
:102240009B68BB613B69DB43BA691340BB613B6878
:102250005B6803F48013002B03D0BA693B69134316
:10226000BB61324ABB699360304BDB68BB613B6941
:10227000DB43BA691340BB613B685B6803F400133E
:10228000002B03D0BA693B691343BB61274ABB6982
:10229000D360264B5B68BB613B69DB43BA69134083
:1022A000BB613B685B6803F40033002B03D0BA6961
:1022B0003B691343BB611D4ABB6953601B4B1B68E1
:1022C000BB613B69DB43BA691340BB613B685B6838
:1022D00003F48033002B03D0BA693B691343BB611D
:1022E000124ABB691360FB690133FB61FB690F2B69
:1022F0007FF690AE00BF00BF2437BD465DF8047B7B
:10230000704700BF00380240003801400000024022
:102310000004024000080240000C0240001002408D
:102320000014024000180240001C0240003C014022
:1023300080B586B000AF78607B68002B01D10123A7
:1023400067E27B681B6803F00103002B75D0884BA4
:102350009B6803F00C03042B0CD0854B9B6803F0A7
:102360000C03082B12D1824B5B6803F48003B3F596
:10237000800F0BD17E4B1B6803F40033002B5BD026
:102380007B685B68002B57D1012342E27B685B6866
:10239000B3F5803F06D1764B1B68754A43F4803312
:1023A00013601DE07B685B68B3F5A02F0CD1704B08
:1023B0001B686F4A43F4802313606D4B1B686C4AA3
:1023C00043F4803313600BE0694B1B68684A23F4C5
:1023D00080331360664B1B68654A23F480231360C7
:1023E0007B685B68002B13D0FEF798FE386108E02D
:1023F000FEF794FE02463B69D31A642B01D90323EE
:1024000007E25B4B1B6803F40033002BF0D014E0B1
:10241000FEF784FE386108E0FEF780FE02463B6965
:10242000D31A642B01D90323F3E1514B1B6803F446
:102430000033002BF0D100E000BF7B681B6803F085
:102440000203002B63D04A4B9B6803F00C03002B64
:102450000BD0474B9B6803F00C03082B1CD1444B5B
:102460005B6803F48003002B16D1414B1B6803F01B
:102470000203002B05D07B68DB68012B01D0012310
:10248000C7E13B4B1B6823F0F8027B681B69DB004C
:10249000374913430B603AE07B68DB68002B20D0A0
:1024A000344B01221A60FEF739FE386108E0FEF76E
:1024B00035FE02463B69D31A022B01D90323A8E15A
:1024C0002B4B1B6803F00203002BF0D0284B1B683A
:1024D00023F0F8027B681B69DB00254913430B607E
:1024E00015E0244B00221A60FEF718FE386108E060
:1024F000FEF714FE02463B69D31A022B01D90323CF
:1025000087E11B4B1B6803F00203002BF0D17B68B3
:102510001B6803F00803002B36D07B685B69002B37
:1025200016D0154B01221A60FEF7F8FD386108E05D
:10253000FEF7F4FD02463B69D31A022B01D90323AF
:1025400067E10B4B5B6F03F00203002BF0D01BE045
:10255000094B00221A60FEF7E1FD38610EE0FEF73C
:10256000DDFD02463B69D31A022B07D9032350E154
:102570000038024000004742800E4742884B5B6FA4
:1025800003F00203002BEAD17B681B6803F004030D
:10259000002B00F097800023FB75814B1B6C03F030
:1025A0008053002B0FD10023BB607D4B1B6C7C4AFA
:1025B00043F0805313647A4B1B6C03F08053BB6071
:1025C000BB680123FB75774B1B6803F48073002BFA
:1025D00018D1744B1B68734A43F480731360FEF781
:1025E0009DFD386108E0FEF799FD02463B69D31A6C
:1025F000022B01D903230CE16A4B1B6803F480739F
:10260000002BF0D07B689B68012B06D1644B1B6FBD
:10261000634A43F0010313671CE07B689B68052B4A
:102620000CD15F4B1B6F5E4A43F0040313675C4B96
:102630001B6F5B4A43F0010313670BE0584B1B6FA2
:10264000574A23F001031367554B1B6F544A23F07D
:10265000040313677B689B68002B15D0FEF75EFDB3
:1026600038610AE0FEF75AFD02463B69D31A41F28F
:102670008832934201D90323CBE0494B1B6F03F00F
:102680000203002BEED014E0FEF748FD38610AE0AB
:10269000FEF744FD02463B69D31A41F28832934269
:1026A00001D90323B5E03E4B1B6F03F00203002B5F
:1026B000EED1FB7D012B05D1394B1B6C384A23F041
:1026C000805313647B689B69002B00F0A180344B1E
:1026D0009B6803F00C03082B5CD07B689B69022B82
:1026E00041D1314B00221A60FEF718FD386108E035
:1026F000FEF714FD02463B69D31A022B01D90323CE
:1027000087E0274B1B6803F00073002BF0D17B6838
:10271000DA697B681B6A1A437B685B6A9B011A4310
:102720007B689B6A5B08013B1B041A437B68DB6A7E
:102730001B061B4913434B601B4B01221A60FEF71B
:10274000EDFC386108E0FEF7E9FC02463B69D31A6C
:10275000022B01D903235CE0114B1B6803F00073CB
:10276000002BF0D054E0104B00221A60FEF7D6FC8C
:10277000386108E0FEF7D2FC02463B69D31A022B0F
:1027800001D9032345E0064B1B6803F00073002BBF
:10279000F0D13DE07B689B69012B07D1012338E034
:1027A0000038024000700040600047421B4B5B68ED
:1027B000FB607B689B69012B28D0FB6803F48002D7
:1027C0007B68DB699A4221D1FB6803F03F027B689A
:1027D0001B6A9A421AD1FA6847F6C07313407A68A6
:1027E000526A9201934211D1FB6803F440327B6834
:1027F0009B6A5B08013B1B049A4207D1FB6803F00C
:1028000070627B68DB6A1B069A4201D0012300E0FC
:10281000002318461837BD4680BD00BF003802406F
:1028200080B584B000AF786039607B68002B01D13F
:102830000123CCE0684B1B6803F007033A689A4217
:102840000CD9654B3A68D2B21A70634B1B6803F01F
:1028500007033A689A4201D00123B8E07B681B68FD
:1028600003F00203002B20D07B681B6803F00403F5
:10287000002B05D0594B9B68584A43F4E0539360B2
:102880007B681B6803F00803002B05D0534B9B6843
:10289000524A43F460439360504B9B6823F0F0022C
:1028A0007B689B684D4913438B607B681B6803F012
:1028B0000103002B44D07B685B68012B07D1474B99
:1028C0001B6803F40033002B19D101237FE07B68E0
:1028D0005B68022B03D07B685B68032B07D13F4BFF
:1028E0001B6803F00073002B09D101236FE03B4B01
:1028F0001B6803F00203002B01D1012367E0374B73
:102900009B6823F003027B685B68344913438B6048
:10291000FEF704FCF8600AE0FEF700FC0246FB68E4
:10292000D31A41F28832934201D903234FE02B4B53
:102930009B6803F00C027B685B689B009A42EBD1BA
:10294000254B1B6803F007033A689A420CD2224BCE
:102950003A68D2B21A70204B1B6803F007033A683A
:102960009A4201D0012332E07B681B6803F0040324
:10297000002B08D0194B9B6823F4E0527B68DB687E
:10298000164913438B607B681B6803F00803002B18
:1029900009D0124B9B6823F460427B681B69DB0003
:1029A0000E4913438B6000F021F802460B4B9B68E5
:1029B0001B0903F00F030A49CB5C22FA03F3094A0F
:1029C0001360094B1B681846FEF780FA002318466F
:1029D0001037BD4680BD00BF003C024000380240B9
:1029E0006864000800000020040000202DE9B04FBA
:1029F00094B000AF00237B640023FB6400233B649E
:102A00000023BB64794B9B6803F00C03082B0DD0AB
:102A1000082B00F2E180002B02D0042B03D0DBE076
:102A2000734BBB64DBE0734BBB64D8E06F4B5B68FC
:102A300003F03F037B646D4B5B6803F48003002B62
:102A400063D06A4B5B689B090022BB63FA63BB6B74
:102A5000C3F308033B6300237B63D7E90C4522469D
:102A60002B464FF000004FF00001590141EAD261BE
:102A7000500102460B462146511A3961294663EB43
:102A800001037B614FF000024FF00003D7E904AB74
:102A900059468B01514643EA916351468A0151469A
:102AA000B2EB0108594663EB01094FF000024FF009
:102AB00000034FEAC90343EA58734FEAC80290463D
:102AC0009946234618EB0303BB602B4649EB0303EF
:102AD000FB604FF000024FF00003D7E902452946A2
:102AE0004B02214643EAD15321464A021046194679
:102AF0007B6C0022BB62FA62D7E90A23FDF768FB10
:102B000002460B461346FB6458E0384B5B689B0952
:102B1000002218461146C0F308033B6200237B6283
:102B2000D7E9088942464B464FF000004FF00001BC
:102B3000590141EAD261500102460B464146B2EBCF
:102B4000010A494663EB010B4FF000024FF000030E
:102B50004FEA8B1343EA9A634FEA8A12B2EB0A04F4
:102B600063EB0B054FF000024FF00003EB0043EA6C
:102B70005473E20014461D464346E3183B604B463F
:102B800045EB03037B604FF000024FF00003D7E9F1
:102B9000004529468B02214643EA915321468A0289
:102BA000104619467B6C0022BB61FA61D7E9062307
:102BB000FDF70EFB02460B461346FB640B4B5B68AE
:102BC0001B0C03F0030301335B003B64FA6C3B6CAA
:102BD000B2FBF3F3BB6402E0054BBB6400BFBB6C0C
:102BE00018465037BD46BDE8B08F00BF00380240E0
:102BF0000024F40000127A0080B400AF034B1B687D
:102C00001846BD465DF8047B704700BF00000020F9
:102C100080B500AFFFF7F0FF0246054B9B689B0AAB
:102C200003F007030349CB5C22FA03F3184680BD87
:102C3000003802407864000880B483B000AF786048
:102C400039607B680F221A60124B9B6803F0030205
:102C50007B685A600F4B9B6803F0F0027B689A60B8
:102C60000C4B9B6803F4E0527B68DA60094B9B686D
:102C7000DB0803F4E0527B681A61074B1B6803F022
:102C800007023B681A6000BF0C37BD465DF8047B45
:102C9000704700BF00380240003C024080B582B05F
:102CA00000AF78607B68002B01D1012341E07B6895
:102CB00093F83D30DBB2002B06D17B68002283F80D
:102CC0003C20786800F039F87B68022283F83D20C8
:102CD0007B681A687B6804331946104600F0C0F917
:102CE0007B68012283F846207B68012283F83E201E
:102CF0007B68012283F83F207B68012283F8402013
:102D00007B68012283F841207B68012283F84220FE
:102D10007B68012283F843207B68012283F84420EA
:102D20007B68012283F845207B68012283F83D20DF
:102D3000002318460837BD4680BD80B483B000AF7D
:102D4000786000BF0C37BD465DF8047B704700001B
:102D500080B485B000AF78607B6893F83D30DBB21B
:102D6000012B01D001234EE07B68022283F83D2035
:102D70007B681B68DA687B681B6842F00102DA60D6
:102D80007B681B68234A934222D07B681B68B3F19F
:102D9000804F1DD07B681B681F4A934218D07B6808
:102DA0001B681E4A934213D07B681B681C4A9342DF
:102DB0000ED07B681B681B4A934209D07B681B6856
:102DC000194A934204D07B681B68184A934211D178
:102DD0007B681B689B6803F00703FB60FB68062B9E
:102DE00010D07B681B681A687B681B6842F0010280
:102DF0001A6007E07B681B681A687B681B6842F0F2
:102E000001021A60002318461437BD465DF8047BA2
:102E1000704700BF0000014000040040000800406F
:102E2000000C004000040140004001400018004038
:102E300080B584B000AF78607B681B68DB68FB609E
:102E40007B681B681B69BB60BB6803F00203002B37
:102E500020D0FB6803F00203002B1BD07B681B68AB
:102E60006FF002021A617B6801221A777B681B6887
:102E70009B6903F00303002B03D0786800F0D2F8BD
:102E800005E0786800F0C4F8786800F0D5F87B6851
:102E900000221A77BB6803F00403002B20D0FB68E4
:102EA00003F00403002B1BD07B681B686FF0040247
:102EB0001A617B6802221A777B681B689B6903F49E
:102EC0004073002B03D0786800F0ACF805E0786818
:102ED00000F09EF8786800F0AFF87B6800221A775F
:102EE000BB6803F00803002B20D0FB6803F0080345
:102EF000002B1BD07B681B686FF008021A617B688F
:102F000004221A777B681B68DB6903F00303002B3C
:102F100003D0786800F086F805E0786800F078F86B
:102F2000786800F089F87B6800221A77BB6803F0A4
:102F30001003002B20D0FB6803F01003002B1BD0E4
:102F40007B681B686FF010021A617B6808221A7791
:102F50007B681B68DB6903F44073002B03D078683F
:102F600000F060F805E0786800F052F8786800F04A
:102F700063F87B6800221A77BB6803F00103002B1B
:102F80000CD0FB6803F00103002B07D07B681B68A3
:102F90006FF001021A617868FDF7A4FEBB6803F0C8
:102FA0008003002B0CD0FB6803F08003002B07D0BC
:102FB0007B681B686FF080021A61786800F000F986
:102FC000BB6803F04003002B0CD0FB6803F0400308
:102FD000002B07D07B681B686FF040021A6178688D
:102FE00000F034F8BB6803F02003002B0CD0FB6822
:102FF00003F02003002B07D07B681B686FF02002D2
:103000001A61786800F0D2F800BF1037BD4680BD65
:1030100080B483B000AF786000BF0C37BD465DF868
:10302000047B704780B483B000AF786000BF0C377A
:10303000BD465DF8047B704780B483B000AF786014
:1030400000BF0C37BD465DF8047B704780B483B089
:1030500000AF786000BF0C37BD465DF8047B704759
:1030600080B485B000AF786039607B681B68FB6016
:103070007B68434A934213D07B68B3F1804F0FD0F3
:103080007B68404A93420BD07B683F4A934207D00B
:103090007B683E4A934203D07B683D4A934208D105
:1030A000FB6823F07003FB603B685B68FA681343BE
:1030B000FB607B68324A93422BD07B68B3F1804F30
:1030C00027D07B682F4A934223D07B682E4A9342B5
:1030D0001FD07B682D4A93421BD07B682C4A9342B9
:1030E00017D07B682B4A934213D07B682A4A9342BD
:1030F0000FD07B68294A93420BD07B68284A9342C1
:1031000007D07B68274A934203D07B68264A9342C4
:1031100008D1FB6823F44073FB603B68DB68FA6806
:103120001343FB60FB6823F080023B685B69134339
:10313000FB603B689A687B68DA623B681A687B6868
:103140009A627B680E4A934203D07B68104A93428E
:1031500003D13B681A697B681A637B681B6843F07C
:1031600004027B681A607B6801225A617B68FA68F6
:103170001A6000BF1437BD465DF8047B704700BF7E
:10318000000001400004004000080040000C004026
:10319000000401400040014000440140004801405B
:1031A00000180040001C00400020004080B483B0A4
:1031B00000AF786000BF0C37BD465DF8047B7047F8
:1031C00080B483B000AF786000BF0C37BD465DF8B7
:1031D000047B704780B483B000AF03463960FB7155
:1031E00097F90730002B0ADB3B68DAB20C4997F9F4
:1031F00007301201D2B20B4483F800230AE03B6887
:10320000DAB20849FB7903F00F03043B1201D2B292
:103210000B441A7600BF0C37BD465DF8047B70473F
:1032200000E100E000ED00E080B500AF054B1B6859
:1032300001F034FF0346012B01D002F02DFD00BF49
:1032400080BD00BF10E000E080B500AF00216FF04E
:103250000400FFF7BFFF00BF80BD000080B483B053
:1032600000AFEFF305833B603B68002B03D06FF0AA
:1032700005037B600CE00A4B1B68002B05D1084B53
:1032800001221A6000237B6002E04FF0FF337B6075
:103290007B6818460C37BD465DF8047B704700BF5D
:1032A000BC01002080B582B000AFEFF305833B6026
:1032B0003B68002B03D06FF005037B6010E00B4BE5
:1032C0001B68012B09D1FFF7BFFF084B02221A60D0
:1032D00001F080FA00237B6002E04FF0FF337B6057
:1032E0007B6818460837BD4680BD00BFBC01002082
:1032F00080B58EB004AFF860B9607A6000233B619E
:10330000EFF305837B617B69002B7ED1FB68002B8B
:103310007BD080233B621823FB6100237B624FF04C
:10332000FF33BB617B68002B45D07B681B68002B9B
:1033300002D07B681B687B627B689B69002B02D094
:103340007B689B69FB61FB69002B08D0FB69382B0C
:1033500005D87B685B6803F00103002B01D00023D4
:1033600054E07B685B69002B03D07B685B699B083A
:103370003B627B689B68002B0ED07B68DB68A72BC9
:103380000AD97B681B69002B06D07B685B69002B20
:1033900002D00123BB6110E07B689B68002B0CD13D
:1033A0007B68DB68002B08D17B681B69002B04D18C
:1033B0000023BB6101E00023BB61BB69012B10D17D
:1033C0007B681B697A68926802920193FB6900939B
:1033D000BB683A6A796AF86801F008F803463B610D
:1033E00013E0BB69002B10D13B6A9AB207F11003BE
:1033F0000193FB690093BB68796AF86801F056F89D
:103400000346012B01D000233B613B691846283756
:10341000BD4680BD80B584B000AF7860EFF3058312
:10342000BB60BB68002B03D06FF00503FB6007E0B7
:103430000023FB607B68002B02D0786801F094F9D0
:10344000FB6818461037BD4680BD80B58AB002AF14
:10345000F860B9607A600023FB61EFF305833B619C
:103460003B69002B5FD1FB68002B5CD0BB68002B55
:1034700059D04FF0FF33BB617B68002B29D07B68AC
:103480009B68002B12D07B68DB684F2B0ED97B68C2
:103490001B69002B0AD07B685A69FB68B96801FB7D
:1034A00003F39A4202D30123BB6114E07B689B685B
:1034B000002B10D17B68DB68002B0CD17B681B696B
:1034C000002B08D17B685B69002B04D10023BB6112
:1034D00001E00023BB61BB69012B0BD17B681A693A
:1034E0007B689B6800210091B968F86800F030FAA9
:1034F000F86108E0BB69002B05D10022B968F868C3
:1035000000F0A3FAF861FB69002B0CD07B68002B5C
:1035100003D07B681B687B6101E000237B617969D4
:10352000F86900F005FFFB6918462037BD4680BDED
:1035300080B588B000AFF860B9603B601346FB719E
:10354000FB68BB610023FB61EFF305837B617B6953
:10355000002B28D0BB69002B05D0BB68002B02D004
:103560003B68002B03D06FF00303FB6138E00023BE
:103570003B6107F110020023B968B86900F0C6FB8F
:103580000346012B03D06FF00203FB6128E03B6987
:10359000002B25D0154B4FF080521A60BFF34F8F90
:1035A000BFF36F8F1CE0BB69002B02D0BB68002B00
:1035B00003D16FF00303FB6112E000233A68B9689E
:1035C000B86900F0A1FA0346012B09D03B68002B33
:1035D00003D06FF00103FB6102E06FF00203FB61B7
:1035E000FB6918462037BD4680BD00BF04ED00E0F2
:1035F00080B588B000AFF860B9607A603B60FB6866
:10360000BB610023FB61EFF305837B617B69002BCA
:1036100028D0BB69002B05D0BB68002B02D03B68CB
:10362000002B03D06FF00303FB6137E000233B6105
:1036300007F110031A46B968B86900F0E7FC0346C1
:10364000012B03D06FF00203FB6127E03B69002BE5
:1036500024D0154B4FF080521A60BFF34F8FBFF349
:103660006F8F1BE0BB69002B02D0BB68002B03D11E
:103670006FF00303FB6111E03A68B968B86900F0C4
:10368000E3FB0346012B09D03B68002B03D06FF00E
:103690000103FB6102E06FF00203FB61FB69184666
:1036A0002037BD4680BD00BF04ED00E080B485B08A
:1036B00000AFF860B9607A60FB68074A1A60BB68BF
:1036C000064A1A607B6880221A6000BF1437BD4624
:1036D0005DF8047B704700BFC00100206802002035
:1036E00080B485B000AFF860B9607A60FB68074AC3
:1036F0001A60BB68064A1A607B684FF480721A60D1
:1037000000BF1437BD465DF8047B70476804002095
:103710001005002080B483B000AF78607B6803F1AF
:1037200008027B685A607B684FF0FF329A607B68C2
:1037300003F108027B68DA607B6803F108027B68AA
:103740001A617B6800221A6000BF0C37BD465DF825
:10375000047B704780B483B000AF78607B68002240
:103760001A6100BF0C37BD465DF8047B704780B41A
:1037700085B000AF786039607B685B68FB603B6850
:10378000FA685A60FB689A683B689A60FB689B68B5
:103790003A685A60FB683A689A603B687A681A61CE
:1037A0007B681B685A1C7B681A6000BF1437BD46D3
:1037B0005DF8047B704780B485B000AF78603960F5
:1037C0003B681B68BB60BB68B3F1FF3F03D17B68FC
:1037D0001B69FB600CE07B680833FB6002E0FB6860
:1037E0005B68FB60FB685B681B68BA689A42F6D24C
:1037F000FB685A683B685A603B685B683A689A6045
:103800003B68FA689A60FB683A685A603B687A6875
:103810001A617B681B685A1C7B681A6000BF1437EA
:10382000BD465DF8047B704780B485B000AF78601A
:103830007B681B69FB607B685B687A6892689A604A
:103840007B689B687A6852685A60FB685B687A6834
:103850009A4203D17B689A68FB685A607B680022B1
:103860001A61FB681B685A1EFB681A60FB681B68BC
:1038700018461437BD465DF8047B704780B584B0A8
:1038800000AF786039607B68FB60FB68002B0BD170
:103890004FF0500383F31188BFF36F8FBFF34F8F47
:1038A000BB6000BF00BFFDE702F066F9FB681A6865
:1038B000FB68DB6BF968096C01FB03F31A44FB68D6
:1038C0009A60FB6800229A63FB681A68FB685A607A
:1038D000FB681A68FB68DB6B013BF968096C01FB4C
:1038E00003F31A44FB68DA60FB68FF2283F8442084
:1038F000FB68FF2283F845203B68002B14D1FB684E
:103900001B69002B1AD0FB681033184601F000FA2F
:103910000346002B12D00D4B4FF080521A60BFF3BC
:103920004F8FBFF36F8F09E0FB6810331846FFF726
:10393000F1FEFB6824331846FFF7ECFE02F04EF967
:10394000012318461037BD4680BD00BF04ED00E0DE
:1039500080B58EB002AFF860B9607A603B60FB68FA
:10396000002B0BD14FF0500383F31188BFF36F8FFF
:10397000BFF34F8FBB6200BF00BFFDE73B68002B6A
:103980000BD14FF0500383F31188BFF36F8FBFF358
:103990004F8F7B6200BF00BFFDE77B68002B02D02A
:1039A000BB68002B01D0012300E00023002B0BD1CA
:1039B0004FF0500383F31188BFF36F8FBFF34F8F26
:1039C0003B6200BF00BFFDE77B68002B02D1BB68F4
:1039D000002B01D1012300E00023002B0BD14FF07D
:1039E000500383F31188BFF36F8FBFF34F8FFB61D9
:1039F00000BF00BFFDE750237B617B69502B0BD0DC
:103A00004FF0500383F31188BFF36F8FBFF34F8FD5
:103A1000BB6100BF00BFFDE77B693B68FB62FB6ADF
:103A2000002B0DD0FB6A012283F8462097F838203E
:103A3000FB6A009313467A68B968F86800F040F8AA
:103A4000FB6A18463037BD4680BD80B58AB002AFEC
:103A5000F860B9601346FB71FB68002B0BD14FF087
:103A6000500383F31188BFF36F8FBFF34F8F3B6118
:103A700000BF00BFFDE7FB68BA6802FB03F3FB6110
:103A8000FB695033184602F099F9B861BB69002B05
:103A900011D0BB697B617B6950337B61BB690022BC
:103AA00083F84620FA79BB69009313467A69B968AE
:103AB000F86800F005F8BB6918462037BD4680BDA0
:103AC00080B584B000AFF860B9607A60FB70BB6805
:103AD000002B03D1BB69BA691A6002E0BB697A683E
:103AE0001A60BB69FA68DA63BB69BA681A640121B3
:103AF000B869FFF7C3FEBB69FA7883F84C2000BFB2
:103B00001037BD4680BD000080B58EB000AFF860B4
:103B1000B9607A603B6000237B63FB683B633B6B6F
:103B2000002B0BD14FF0500383F31188BFF36F8F3D
:103B3000BFF34F8FBB6200BF00BFFDE7BB68002B28
:103B400003D13B6B1B6C002B01D1012300E0002350
:103B5000002B0BD14FF0500383F31188BFF36F8F0D
:103B6000BFF34F8F7B6200BF00BFFDE73B68022BB6
:103B700003D13B6BDB6B012B01D1012300E0002360
:103B8000002B0BD14FF0500383F31188BFF36F8FDD
:103B9000BFF34F8F3B6200BF00BFFDE701F07EFA2D
:103BA0000346002B02D17B68002B01D1012300E0EA
:103BB0000023002B0BD14FF0500383F31188BFF388
:103BC0006F8FBFF34F8FFB6100BF00BFFDE701F0B8
:103BD000D3FF3B6B9A6B3B6BDB6B9A4202D33B6828
:103BE000022B29D13A68B968386B00F091FAF86273
:103BF0003B6B5B6A002B10D03B6B2433184601F003
:103C000087F80346002B13D03F4B4FF080521A60C9
:103C1000BFF34F8FBFF36F8F0AE0FB6A002B07D013
:103C2000394B4FF080521A60BFF34F8FBFF36F8F45
:103C300001F0D4FF012363E07B68002B03D101F086
:103C4000CDFF00235CE07B6B002B06D107F1140352
:103C5000184601F0C1F801237B6301F0BFFF00F0BB
:103C600029FE01F089FF3B6B93F844305BB2B3F15E
:103C7000FF3F03D13B6B002283F844203B6B93F85A
:103C800045305BB2B3F1FF3F03D13B6B002283F8B9
:103C9000452001F0A3FF3A1D07F114031146184611
:103CA00001F0B0F80346002B24D1386B00F028FB5C
:103CB0000346002B18D03B6B10337A681146184628
:103CC00000F0D4FF386B00F0B3FA00F001FE0346B9
:103CD000002B7FF47CAF0C4B4FF080521A60BFF387
:103CE0004F8FBFF36F8F72E7386B00F0A1FA00F0CF
:103CF000EFFD6CE7386B00F09BFA00F0E9FD002364
:103D000018463837BD4680BD04ED00E080B590B060
:103D100000AFF860B9607A603B60FB68BB63BB6B67
:103D2000002B0BD14FF0500383F31188BFF36F8F3B
:103D3000BFF34F8FBB6200BF00BFFDE7BB68002B26
:103D400003D1BB6B1B6C002B01D1012300E00023CE
:103D5000002B0BD14FF0500383F31188BFF36F8F0B
:103D6000BFF34F8F7B6200BF00BFFDE73B68022BB4
:103D700003D1BB6BDB6B012B01D1012300E00023DE
:103D8000002B0BD14FF0500383F31188BFF36F8FDB
:103D9000BFF34F8F3B6200BF00BFFDE701F0CCFFD8
:103DA000EFF311824FF0500383F31188BFF36F8F4D
:103DB000BFF34F8FFA61BB61FB697B63BB6B9A6B8F
:103DC000BB6BDB6B9A4202D33B68022B2FD1BB6BE0
:103DD00093F8453087F83330BB6B9B6BFB623A68D6
:103DE000B968B86B00F094F997F93330B3F1FF3F3D
:103DF00012D1BB6B5B6A002B16D0BB6B2433184609
:103E000000F086FF0346002B0ED07B68002B0BD002
:103E10007B6801221A6007E097F833300133DBB288
:103E20005AB2BB6B83F845200123FB6301E00023FA
:103E3000FB637B6B7B617B6983F3118800BFFB6B4A
:103E400018464037BD4680BD80B58CB000AFF860E5
:103E5000B9607A600023FB62FB68BB62BB6A002B1F
:103E60000BD14FF0500383F31188BFF36F8FBFF373
:103E70004F8F3B6200BF00BFFDE7BB68002B03D143
:103E8000BB6A1B6C002B01D1012300E00023002B37
:103E90000BD14FF0500383F31188BFF36F8FBFF343
:103EA0004F8FFB6100BF00BFFDE701F0F7F803464D
:103EB000002B02D17B68002B01D1012300E00023FD
:103EC000002B0BD14FF0500383F31188BFF36F8F9A
:103ED000BFF34F8FBB6100BF00BFFDE701F04CFE99
:103EE000BB6A9B6B7B627B6A002B1FD0B968B86A88
:103EF00000F078F97B6A5A1EBB6A9A63BB6A1B6939
:103F0000002B0FD0BB6A1033184600F001FF0346A8
:103F1000002B07D03C4B4FF080521A60BFF34F8FFD
:103F2000BFF36F8F01F05AFE012369E07B68002B1D
:103F300003D101F053FE002362E0FB6A002B06D19F
:103F400007F11003184600F047FF0123FB6201F060
:103F500045FE00F0AFFC01F00FFEBB6A93F8443061
:103F60005BB2B3F1FF3F03D1BB6A002283F8442068
:103F7000BB6A93F845305BB2B3F1FF3F03D1BB6A34
:103F8000002283F8452001F029FE3A1D07F11003B5
:103F90001146184600F036FF0346002B23D1B86ABD
:103FA00000F098F90346002B17D0BB6A24337A68D7
:103FB0001146184600F05AFEB86A00F039F900F0D0
:103FC00087FC0346002B89D10F4B4FF080521A60BB
:103FD000BFF34F8FBFF36F8F80E7B86A00F028F907
:103FE00000F076FC7AE7B86A00F022F900F070FC85
:103FF000B86A00F06FF90346002B3FF46FAF00235F
:1040000018463037BD4680BD04ED00E080B58EB067
:1040100000AFF860B9607A60FB683B633B6B002BD4
:104020000BD14FF0500383F31188BFF36F8FBFF3B1
:104030004F8F3B6200BF00BFFDE7BB68002B03D181
:104040003B6B1B6C002B01D1012300E00023002BF4
:104050000BD14FF0500383F31188BFF36F8FBFF381
:104060004F8FFB6100BF00BFFDE701F065FEEFF37E
:1040700011824FF0500383F31188BFF36F8FBFF3AA
:104080004F8FBA617B61BB69FB623B6B9B6BBB6211
:10409000BB6A002B2FD03B6B93F8443087F8273056
:1040A000B968386B00F09EF8BB6A5A1E3B6B9A6386
:1040B00097F92730B3F1FF3F12D13B6B1B69002BFF
:1040C00016D03B6B1033184600F022FE0346002B3F
:1040D0000ED07B68002B0BD07B6801221A6007E0B2
:1040E00097F827300133DBB25AB23B6B83F8442098
:1040F00001237B6301E000237B63FB6A3B613B6937
:1041000083F3118800BF7B6B18463837BD4680BDEE
:1041100080B586B000AFF860B9607A6000237B613B
:10412000FB689B6B3B61FB681B6C002B0DD1FB6834
:104130001B68002B4DD1FB689B68184600F0CCFF34
:104140007861FB6800229A6043E07B68002B19D1FC
:10415000FB685868FB681B6C1A46B96802F0A8F83F
:10416000FB685A68FB681B6C1A44FB685A60FB6862
:104170005A68FB689B689A422BD3FB681A68FB68F5
:104180005A6026E0FB68D868FB681B6C1A46B96861
:1041900002F08EF8FB68DA68FB681B6C5B421A441D
:1041A000FB68DA60FB68DA68FB681B689A4207D232
:1041B000FB689A68FB681B6C5B421A44FB68DA6018
:1041C0007B68022B05D13B69002B02D03B69013B88
:1041D0003B613B695A1CFB689A637B691846183738
:1041E000BD4680BD80B582B000AF786039607B6825
:1041F0001B6C002B18D07B68DA687B681B6C1A4438
:104200007B68DA607B68DA687B689B689A4203D3D4
:104210007B681A687B68DA607B68D9687B681B6C8E
:104220001A46386802F044F800BF0837BD4680BD22
:1042300080B584B000AF786001F09EFC7B6893F895
:104240004530FB7311E07B685B6A002B12D07B6802
:104250002433184600F05CFD0346002B01D000F02B
:1042600035FEFB7B013BDBB2FB7397F90F30002B74
:10427000E9DC00E000BF7B68FF2283F8452001F005
:10428000ADFC01F079FC7B6893F84430BB7311E01E
:104290007B681B69002B12D07B681033184600F036
:1042A00037FD0346002B01D000F010FEBB7B013B25
:1042B000DBB2BB7397F90E30002BE9DC00E000BFE6
:1042C0007B68FF2283F8442001F088FC00BF103790
:1042D000BD4680BD80B584B000AF786001F04CFC75
:1042E0007B689B6B002B02D10123FB6001E0002364
:1042F000FB6001F073FCFB6818461037BD4680BDBB
:1043000080B584B000AF786001F036FC7B689A6BB2
:104310007B68DB6B9A4202D10123FB6001E0002342
:10432000FB6001F05BFCFB6818461037BD4680BDA2
:1043300080B485B000AF786039600023FB6014E082
:104340000F4AFB6852F83330002B0BD10C49FB6845
:104350003A6841F833200A4AFB68DB0013447A6864
:104360005A6006E0FB680133FB60FB68072BE7D966
:1043700000BF00BF1437BD465DF8047B704700BF27
:104380001009002080B586B000AFF860B9607A608F
:10439000FB687B6101F0F0FB7B6993F844305BB212
:1043A000B3F1FF3F03D17B69002283F844207B698E
:1043B00093F845305BB2B3F1FF3F03D17B69002234
:1043C00083F8452001F00AFC7B699B6B002B06D12A
:1043D0007B6924337A68B968184600F06DFC786907
:1043E000FFF726FF00BF1837BD4680BD80B58EB0F1
:1043F00004AFF860B9607A603B607B6B002B0BD137
:104400004FF0500383F31188BFF36F8FBFF34F8FCB
:104410003B6200BF00BFFDE7BB6B002B0BD14FF031
:10442000500383F31188BFF36F8FBFF34F8FFB618E
:1044300000BF00BFFDE7A8233B613B69A82B0BD061
:104440004FF0500383F31188BFF36F8FBFF34F8F8B
:10445000BB6100BF00BFFDE73B69BB6B002B1ED0FB
:104460007B6B002B1BD0BB6B7B627B6A7A6B1A6306
:104470007B6A022283F8A520002303937B6A0293C0
:1044800007F1140301933B6B00933B687A68B968AA
:10449000F86800F051F8786A00F0F6F801E00023BF
:1044A0007B617B6918462837BD4680BD80B58CB0DE
:1044B00004AFF860B9603B601346FB80FB889B004B
:1044C000184601F07BFC78617B69002B0ED0A82098
:1044D00001F074FCF861FB69002B03D0FB697A6979
:1044E0001A6305E0786901F037FD01E00023FB6104
:1044F000FB69002B17D0FB69002283F8A520FA88FE
:1045000000230393FB690293FB6A0193BB6A009348
:104510003B68B968F86800F00FF8F86900F0B4F883
:104520000123BB6102E04FF0FF33BB61BB6918465A
:104530002037BD4680BD000080B588B000AFF86070
:10454000B9607A603B603B6B186B7B689B001A46D6
:10455000A52101F021FE3B6B1A6B7B6803F18043C0
:10456000013B9B001344BB61BB6923F00703BB61A4
:10457000BB6903F00703002B0BD04FF0500383F30C
:104580001188BFF36F8FBFF34F8F7B6100BF00BFF8
:10459000FDE7BB68002B1FD00023FB6112E0BA6867
:1045A000FB69134419783A6BFB69134434330A46A8
:1045B0001A70BA68FB6913441B78002B06D0FB699C
:1045C0000133FB61FB690F2BE9D900E000BF3B6BB6
:1045D000002283F8432003E03B6B002283F8342061
:1045E000BB6A372B01D93723BB623B6BBA6ADA62ED
:1045F0003B6BBA6ADA643B6B00221A653B6B04338F
:104600001846FFF7A7F83B6B18331846FFF7A2F8D8
:104610003B6B3A6B1A61BB6AC3F138023B6B9A6120
:104620003B6B3A6B5A623B6B0022C3F8A0203B6B9A
:10463000002283F8A4203B6B54334C2200211846FF
:1046400001F0AAFD3B6B0D4A9A653B6B0C4ADA659B
:104650003B6B0C4A1A663A68F968B86901F05AF976
:1046600002463B6B1A60FB6A002B02D0FB6A3A6B76
:104670001A6000BF2037BD4680BD00BFA44B00209C
:104680000C4C0020744C002080B582B000AF7860E4
:1046900001F072FA2D4B1B6801332C4A13602C4B2E
:1046A0001B68002B09D12A4A7B681360274B1B68C3
:1046B000012B10D100F02EFC0DE0264B1B68002BC7
:1046C00009D1234B1B68DA6A7B68DB6A9A4202D8FD
:1046D0001F4A7B681360204B1B6801331E4A13601E
:1046E0001D4B1A687B685A647B68DA6A1B4B1B682F
:1046F0009A4203D97B68DB6A184A13607B68DA6ADE
:1047000013469B0013449B00154A1A447B680433EC
:1047100019461046FFF72BF801F060FA0D4B1B68A5
:10472000002B0ED00A4B1B68DA6A7B68DB6A9A4260
:1047300007D20C4B4FF080521A60BFF34F8FBFF37C
:104740006F8F00BF0837BD4680BD00BF240E00201C
:1047500050090020300E0020400E00202C0E0020BA
:104760005409002004ED00E080B584B000AF78600B
:104770000023FB607B68002B18D0144B1B68002BB8
:104780000BD04FF0500383F31188BFF36F8FBFF34B
:104790004F8FBB6000BF00BFFDE700F08BF800212A
:1047A000786800F009FD00F093F8F860FB68002BD2
:1047B00007D1074B4FF080521A60BFF34F8FBFF302
:1047C0006F8F00BF1037BD4680BD00BF4C0E00206C
:1047D00004ED00E080B58AB004AF0023BB60002385
:1047E0007B603A46391D07F108031846FEF75EFF65
:1047F00039687B68BA680292019300230093002312
:104800000A4624492448FFF7F1FD0346234A136072
:10481000224B1B68002B02D001237B6101E00023A7
:104820007B617B69012B02D100F01AFD78617B6905
:10483000012B1BD14FF0500383F31188BFF36F8F0F
:10484000BFF34F8F3B6100BF154B1B685433154AB4
:104850001360154B4FF0FF321A60144B01221A609F
:10486000134B00221A6001F0E3F80FE07B69B3F10B
:10487000FF3F0BD14FF0500383F31188BFF36F8FCD
:10488000BFF34F8FFB6000BF00BFFDE700BF1837CD
:10489000BD4680BDD8630008E54E0008480E0020E4
:1048A0005009002010000020440E0020300E00208F
:1048B000280E002080B400AF044B1B680133034A6C
:1048C000136000BFBD465DF8047B70474C0E0020AE
:1048D00080B584B000AF0023FB600023BB60424B77
:1048E0001B68002B0BD14FF0500383F31188BFF3EB
:1048F0006F8FBFF34F8F3B6000BF00BFFDE701F03C
:104900003BF9394B1B68013B374A1360364B1B6838
:10491000002B62D1354B1B68002B5ED02FE0344B4F
:10492000DB68DB68FB60FB6818331846FEF77CFF2A
:10493000FB6804331846FEF777FFFB68DA6A2D4BF5
:104940001B689A4203D9FB68DB6A2A4A1360FB683A
:10495000DA6A13469B0013449B00274A1A44FB68FB
:10496000043319461046FEF702FFFB68DA6A234B50
:104970001B68DB6A9A4202D3214B01221A601C4B4E
:104980001B68002BCBD1FB68002B01D000F066FB2D
:104990001C4B1B687B607B68002B10D000F046F836
:1049A0000346002B02D0164B01221A607B68013BA4
:1049B0007B607B68002BF1D1124B00221A60104BF8
:1049C0001B68002B09D00123BB600F4B4FF08052B6
:1049D0001A60BFF34F8FBFF36F8F01F0FFF8BB6812
:1049E00018461037BD4680BD4C0E0020240E002016
:1049F000E40D00202C0E0020540900205009002056
:104A0000380E0020340E002004ED00E080B483B0A6
:104A100000AF054B1B687B607B6818460C37BD46B2
:104A20005DF8047B704700BF280E002080B586B07B
:104A300000AF00237B614F4B1B68002B40F0908040
:104A40004D4B1B6801333B614B4A3B6913603B692B
:104A5000002B21D1494B1B681B68002B0BD04FF05A
:104A6000500383F31188BFF36F8FBFF34F8F3B6009
:104A700000BF00BFFDE7414B1B68FB60404B1B685C
:104A80003E4A13603E4AFB6813603E4B1B6801338D
:104A90003C4A136000F0E2FA3B4B1B683A699A42C9
:104AA00049D3364B1B681B68002B04D1364B4FF0A3
:104AB000FF321A603FE0314B1B68DB68DB68BB608C
:104AC000BB685B687B603A697B689A4203D22E4A76
:104AD0007B6813602FE0BB6804331846FEF7A4FE22
:104AE000BB689B6A002B04D0BB6818331846FEF7DE
:104AF0009BFEBB68DA6A254B1B689A4203D9BB68E8
:104B0000DB6A224A1360BB68DA6A13469B001344CF
:104B10009B001F4A1A44BB68043319461046FEF72F
:104B200026FEBB68DA6A1B4B1B68DB6A9A42B8D365
:104B300001237B61B5E7174B1B68DA6A14491346FA
:104B40009B0013449B000B441B68012B01D90123DC
:104B50007B61114B1B68002B07D001237B6104E0B4
:104B60000E4B1B6801330D4A13607B6918461837DA
:104B7000BD4680BD4C0E0020280E0020DC0D00201C
:104B8000E00D00203C0E0020440E00202C0E0020E2
:104B90005409002050090020380E0020340E002057
:104BA00080B485B000AF2B4B1B68002B03D02A4B81
:104BB00001221A6047E0284B00221A60274B1B682D
:104BC000FB6011E0FB68002B0BD14FF0500383F327
:104BD0001188BFF36F8FBFF34F8F7B6000BF00BFA3
:104BE000FDE7FB68013BFB601D49FA6813469B002B
:104BF00013449B000B441B68002BE3D0FA68134658
:104C00009B0013449B00164A1344BB60BB685B685F
:104C10005A68BB685A60BB685A68BB6808339A42D6
:104C200004D1BB685B685A68BB685A60BB685B6844
:104C3000DB680C4A1360094AFB681360094B1B6868
:104C40005433094A136000BF1437BD465DF8047B36
:104C5000704700BF4C0E0020380E00202C0E0020A4
:104C600054090020500900201000002080B584B0B5
:104C700000AF786039607B68002B0BD14FF0500398
:104C800083F31188BFF36F8FBFF34F8FFB6000BFBB
:104C900000BFFDE7074B1B68183319467868FEF71D
:104CA0008AFD0121386800F087FA00BF1037BD4641
:104CB00080BD00BF5009002080B586B000AFF8600D
:104CC000B9607A60FB68002B0BD14FF0500383F37F
:104CD0001188BFF36F8FBFF34F8F7B6100BF00BFA1
:104CE000FDE70A4B1B6818331946F868FEF73FFDCD
:104CF0007B68002B02D04FF0FF33BB607968B86847
:104D000000F05AFA00BF1837BD4680BD5009002098
:104D100080B586B000AF78607B68DB68DB683B619C
:104D20003B69002B0BD14FF0500383F31188BFF385
:104D30006F8FBFF34F8FFB6000BF00BFFDE73B6984
:104D400018331846FEF770FD1D4B1B68002B1DD154
:104D50003B6904331846FEF767FD3B69DA6A194B75
:104D60001B689A4203D93B69DB6A164A13603B69A8
:104D7000DA6A13469B0013449B00134A1A443B69AA
:104D8000043319461046FEF7F2FC05E03B69183380
:104D900019460E48FEF7EBFC3B69DA6A0C4B1B68C0
:104DA000DB6A9A4205D901237B610A4B01221A6012
:104DB00001E000237B617B6918461837BD4680BD42
:104DC0004C0E00202C0E002054090020E40D002081
:104DD00050090020380E002080B483B000AF786006
:104DE000064B1A687B681A60054B1A687B685A6024
:104DF00000BF0C37BD465DF8047B70473C0E0020B9
:104E0000280E002080B588B000AF786039607B68DC
:104E1000002B0BD14FF0500383F31188BFF36F8F3A
:104E2000BFF34F8F3B6100BF00BFFDE73B68002B26
:104E30000BD14FF0500383F31188BFF36F8FBFF393
:104E40004F8FFB6000BF00BFFDE700F095FE1D4BDC
:104E50001B68BB617B685B68BA69D31A7B613B687E
:104E60001B68B3F1FF3F02D10023FB6123E07B68A5
:104E70001A68154B1B689A4207D07B685B68BA6951
:104E80009A4202D30123FB6115E03B681B687A69F3
:104E90009A420BD23B681A687B69D21A3B681A6047
:104EA0007868FFF799FF0023FB6104E03B6800226C
:104EB0001A600123FB6100F091FEFB691846203760
:104EC000BD4680BD280E00203C0E002080B400AFFF
:104ED000034B01221A6000BFBD465DF8047B70479A
:104EE000380E002080B582B000AF786000F052F834
:104EF000064B1B68012BF9D9054B4FF080521A6005
:104F0000BFF34F8FBFF36F8FF0E700BF540900204E
:104F100004ED00E080B582B000AF00237B600CE0C0
:104F20007A6813469B0013449B00124A13441846A8
:104F3000FEF7F0FB7B6801337B607B68372BEFD992
:104F40000D48FEF7E7FB0D48FEF7E4FB0C48FEF7C3
:104F5000E1FB0C48FEF7DEFB0B48FEF7DBFB0B4BDF
:104F6000054A1A600A4B054A1A6000BF0837BD4659
:104F700080BD00BF54090020B40D0020C80D0020E2
:104F8000E40D0020F80D0020100E0020DC0D0020A4
:104F9000E00D002080B582B000AF19E000F0ECFD1C
:104FA000104BDB68DB687B607B6804331846FEF7D8
:104FB0003BFC0D4B1B68013B0B4A13600B4B1B6802
:104FC000013B0A4A136000F009FE786800F010F80F
:104FD000064B1B68002BE1D100BF00BF0837BD4660
:104FE00080BD00BFF80D0020240E00200C0E002014
:104FF00080B584B000AF78607B685433184601F008
:10500000D3F87B6893F8A530002B08D17B681B6B25
:10501000184600F0A1FF786800F09EFF19E07B6859
:1050200093F8A530012B03D1786800F095FF10E0CC
:105030007B6893F8A530022B0BD04FF0500383F31D
:105040001188BFF36F8FBFF34F8FFB6000BF00BFAE
:10505000FDE700BF1037BD4680BD000080B483B0BF
:1050600000AF0C4B1B681B68002B04D10A4B4FF0A0
:10507000FF321A6008E0074B1B68DB68DB687B6067
:105080007B685B68044A136000BF0C37BD465DF85F
:10509000047B7047DC0D0020440E002080B483B0F8
:1050A00000AF0B4B1B68002B02D101237B6008E093
:1050B000084B1B68002B02D102237B6001E0002318
:1050C0007B607B6818460C37BD465DF8047B7047F3
:1050D000300E00204C0E002080B586B000AF786006
:1050E0007B683B6100237B617B68002B58D02F4B92
:1050F0001B683A699A420BD04FF0500383F3118832
:10510000BFF36F8FBFF34F8FFB6000BF00BFFDE7A2
:105110003B691B6D002B0BD14FF0500383F31188BB
:10512000BFF36F8FBFF34F8FBB6000BF00BFFDE7C2
:105130003B691B6D5A1E3B691A653B69DA6A3B691C
:10514000DB6C9A422CD03B691B6D002B28D13B694C
:1051500004331846FEF768FB3B69DA6C3B69DA6298
:105160003B69DB6AC3F138023B699A613B69DA6AE1
:105170000F4B1B689A4203D93B69DB6A0C4A1360E8
:105180003B69DA6A13469B0013449B00094A1A44A0
:105190003B69043319461046FEF7E9FA01237B61A7
:1051A0007B6918461837BD4680BD00BF50090020F6
:1051B0002C0E00205409002080B584B000AF786028
:1051C0003960214B1B68FB60204B1B680433184679
:1051D000FEF72AFB7B68B3F1FF3F0AD13B68002B47
:1051E00007D01A4B1B68043319461948FEF7BFFA5B
:1051F00026E0FA687B681344BB60144B1B68BA68EE
:105200005A60BA68FB689A4209D2124B1A680F4B6F
:105210001B68043319461046FEF7CDFA10E00E4B1A
:105220001A680A4B1B68043319461046FEF7C3FA86
:105230000A4B1B68BA689A4202D2084ABB681360DC
:1052400000BF1037BD4680BD280E00205009002049
:10525000100E0020E00D0020DC0D0020440E002088
:1052600080B58AB004AF00237B6100F013FB1D4BB7
:105270001B68002B21D00023FB600023BB603A1D7C
:1052800007F1080107F10C031846FEF729FA7968BF
:10529000BB68FA68029201930223009300230A4636
:1052A00011491248FFF7A2F80346114A1360104B48
:1052B0001B68002B01D001237B617B69002B0BD184
:1052C0004FF0500383F31188BFF36F8FBFF34F8FFD
:1052D0003B6100BF00BFFDE77B6918461837BD463C
:1052E00080BD00BF800E0020E06300082D54000840
:1052F000840E002080B58AB000AFF860B9607A6093
:105300003B6000237B62FB68002B0BD14FF0500306
:1053100083F31188BFF36F8FBFF34F8F3B6200BFE2
:1053200000BFFDE7194B1B68002B2AD0BB683B610F
:105330007B687B61FB68BB61BB68052B18DCFFF7F2
:10534000ADFE0346022B09D1104B186807F110017E
:1053500000233A6BFEF7D8FB786212E00B4B18681B
:1053600007F1100100230022FEF7CEFB786208E06F
:10537000064B186807F1100100233A68FEF7C6FCD7
:1053800078627B6A18462837BD4680BD800E0020B3
:1053900080B588B002AF78603960234B1B68DB684A
:1053A000DB687B617B6904331846FEF73DFA7B6955
:1053B00093F8283003F00403002B23D07B699A690B
:1053C0007B68D1187B683A68786900F0D5F80346A5
:1053D000002B20D00023009300237A6800217869F5
:1053E000FFF788FF38613B69002B14D14FF0500361
:1053F00083F31188BFF36F8FBFF34F8FFB6000BF44
:1054000000BFFDE77B6993F8283023F00103DAB28F
:105410007B6983F828207B691B6A7869984700BFFD
:105420001837BD4680BD00BF780E002080B584B01F
:1054300000AF786007F10803184600F059F8F860EB
:10544000BB681946F86800F005F800F0D7F800BF0F
:10545000F0E7000080B584B000AF78603960FFF7F6
:1054600029FA07F10803184600F066F8F860BB68EF
:10547000002B30D13B68002B0AD17A68FB689A4236
:1054800006D8FFF725FAF9687868FFF781FF24E06E
:105490003B68002B08D0134B1B681B68002B01D105
:1054A000012300E000233B600F4B18687A68FB681B
:1054B000D31A3A681946FEF765FFFFF709FA034663
:1054C000002B0AD1094B4FF080521A60BFF34F8F67
:1054D000BFF36F8F01E0FFF7FBF900BF1037BD4648
:1054E00080BD00BF7C0E0020800E002004ED00E097
:1054F00080B485B000AF78600E4B1B681B68002B32
:1055000001D1012200E000227B681A607B681B68E1
:10551000002B05D1074B1B68DB681B68FB6001E0B3
:105520000023FB60FB6818461437BD465DF8047B1A
:10553000704700BF780E002080B584B000AF78605F
:10554000FFF764FAF8600B4B1B68FA689A4205D2C1
:1055500000F03AF97B6801221A6002E07B680022C1
:105560001A60044AFB681360FB6818461037BD4692
:1055700080BD00BF880E002080B586B000AFF86007
:10558000B9607A603B6000237B61FB68BA685A604F
:10559000FB68FA681A61BA687B689A4212D87A681E
:1055A0003B68D21AFB689B699A4202D301237B6154
:1055B0001BE0104B1A68FB68043319461046FEF7CF
:1055C000FAF812E07A683B689A4206D2BA683B68F9
:1055D0009A4202D301237B6107E0074B1A68FB68FC
:1055E000043319461046FEF7E6F87B69184618376B
:1055F000BD4680BD7C0E0020780E002080B58EB0A8
:1056000002AFCEE07B68002B19DA3B1D0433FB624E
:10561000FB6A002B0BD14FF0500383F31188BFF3CB
:105620006F8FBFF34F8FFB6100BF00BFFDE7FB6AC9
:105630001B68FA6A5068FA6A9268114698477B6854
:10564000002BC0F2AE80FB68BB62BB6A5B69002BBB
:1056500004D0BB6A04331846FEF7E6F83B4618460A
:10566000FFF76AFF78627B68092B00F2978001A23E
:1056700052F823F09D5600089D5600089D560008DC
:105680001357000827570008735700089D56000855
:105690009D5600081357000827570008BB6A93F867
:1056A000283043F00103DAB2BB6A83F82820BA68D5
:1056B000BB6A9B69D118BB687A6AB86AFFF75CFF5E
:1056C0000346002B6CD0BB6A1B6AB86A9847BB6A5A
:1056D00093F8283003F00403002B61D0BA68BB6A4A
:1056E0009B691A440023009300230021B86AFFF746
:1056F00001FE38623B6A002B52D14FF0500383F316
:105700001188BFF36F8FBFF34F8FBB6100BF00BF26
:10571000FDE7BB6A93F8283023F00103DAB2BB6AD5
:1057200083F828203DE0BB6A93F8283043F001035A
:10573000DAB2BB6A83F82820BA68BB6A9A61BB6A8E
:105740009B69002B0BD14FF0500383F31188BFF3FB
:105750006F8FBFF34F8F7B6100BF00BFFDE7BB6A58
:105760009A697B6AD1187B6A7A6AB86AFFF704FF84
:1057700017E0BB6A93F8283003F00203002B03D133
:10578000B86A00F0E9FB0CE0BB6A93F8283023F01C
:105790000103DAB2BB6A83F8282002E000BF00E010
:1057A00000BF084B1B68391D00221846FEF74CFB52
:1057B0000346002B7FF426AF00BF00BF3037BD4645
:1057C00080BD00BF800E002080B588B002AF49E0E8
:1057D0002E4B1B68DB681B683B612C4B1B68DB682E
:1057E000DB68FB60FB6804331846FEF71DF8FB68B6
:1057F0001B6AF8689847FB6893F8283003F00403A5
:10580000002B2FD0FB689B693A691344BB60BA68D0
:105810003B699A420ED9FB68BA685A60FB68FA681D
:105820001A611A4B1A68FB68043319461046FDF7D3
:10583000C2FF17E00023009300233A690021F868B3
:10584000FFF758FD78607B68002B0BD14FF05003B9
:1058500083F31188BFF36F8FBFF34F8F3B6000BF9F
:1058600000BFFDE7094B1B681B68002BB0D1074B3D
:105870001B687B61064B1B68044A1360044A7B6902
:10588000136000BF1837BD4680BD00BF780E0020F2
:105890007C0E002080B582B002AF00F06DF9154B90
:1058A0001B68002B20D11448FDF734FF1348FDF787
:1058B00031FF134B104A1A60124B104A1A60002332
:1058C0000093114B114A10210A20FEF741F80346BC
:1058D000084A1360074B1B68002B05D0054B1B685B
:1058E0000B491846FEF724FD00F078F900BFBD46CD
:1058F00080BD00BF800E0020500E0020640E0020EE
:10590000780E00207C0E00202C0F00208C0E002032
:10591000E863000880B485B000AFF860B9607A60D1
:10592000FB68043BFB60FB684FF080721A60FB6809
:10593000043BFB60BB6823F00102FB681A60FB6854
:10594000043BFB600C4AFB681A60FB68143BFB607D
:105950007A68FB681A60FB68043BFB60FB686FF0C9
:1059600002021A60FB68203BFB60FB681846143794
:10597000BD465DF8047B70477D59000880B485B052
:1059800000AF00237B60134B1B68B3F1FF3F0BD0CC
:105990004FF0500383F31188BFF36F8FBFF34F8F26
:1059A000FB6000BF00BFFDE74FF0500383F3118899
:1059B000BFF36F8FBFF34F8FBB6000BF00BF7B682B
:1059C000002BFCD000BF00BF1437BD465DF8047B40
:1059D000704700BF0C000020000000000000000025
:1059E000074B19680868B0E8F04F80F30988BFF3E7
:1059F0006F8F4FF0000080F311887047AFF3008085
:105A00005009002000BF00BF08480068006880F30C
:105A100008884FF0000080F3148862B661B6BFF3C7
:105A20004F8FBFF36F8F00DF00BF00BF08ED00E0B6
:105A300080B586B000AF474B1B68474A93420BD1F5
:105A40004FF0500383F31188BFF36F8FBFF34F8F75
:105A5000FB6000BF00BFFDE73E4B1B683F4A93421F
:105A60000BD14FF0500383F31188BFF36F8FBFF357
:105A70004F8F3B6100BF00BFFDE7394B7B617B6906
:105A80001B78DBB27B607B69FF221A707B691B7815
:105A9000DBB2FB70FB78DBB203F05003DAB2314BC0
:105AA0001A70314B07221A6009E02F4B1B68013B2B
:105AB0002D4A1360FB78DBB25B00DBB2FB70FB7836
:105AC000DBB203F08003802BEFD0274B1B68C3F1C0
:105AD0000703042B0BD04FF0500383F31188BFF35F
